:020000040800F2
:104000001874002051140108E9050108EB050108A6
:10401000ED050108EF050108F105010800000000A9
:10402000000000000000000000000000F30501088F
:10403000F505010800000000F7050108F905010871
:1040400035160108391601083D16010899060108C0
:104050004116010845160108491601084D160108C8
:104060005116010855160108591601085D16010878
:10407000A10701087B070108611601086516010800
:10408000FF0601082507010837080108691601081D
:104090006D160108711601087516010879160108D8
:1040A0007D16010881160108851601088916010888
:1040B0008D16010891160108951601089916010838
:1040C0009D160108A1160108A5160108A9160108E8
:1040D000AD16010863060108C30601083F07010881
:1040E000B1160108B5160108B9160108BD16010878
:1040F000C1160108C5160108C9160108CD16010828
:10410000D1160108D5160108D9160108DD160108D7
:1041100097080108DB070108E1160108E516010808
:10412000E9160108ED160108390801085F080108C1
:1041300030B4002513E050F8042BD30744BFA9F195
:1041400001039A18091F042942F8045BFAD21346A6
:104150008C0744BF15809B1CC90748BF1D7050F8D1
:10416000041B0029E7D130BC7047B1F5807F02D332
:104170004FF0FF3070470170012070470078401EFB
:104180008041C043C00F70470268531C0360117028
:104190007047120001300101010001310773010075
:1041A0000120020102030404F009080607080902BD
:1041B000040608C6B9000452FF01E336AD1420041A
:1041C000000046AF000857F003162C000020000145
:1041D00020027D4100082C436B413C210103010179
:10500000534D353030312032333038303430312068
:1050100047443332323330320000000000000000D9
:105020000000000000000000000000000000000080
:0250300000007E
:1050340038B500F044F800F040F9DFF82809002101
:10504400817300214173417B00EB81014FF448726D
:10505400C1F8A820DFF8104994F80811427B0244F3
:1050640051740121427B024482F885100621427B5F
:10507400024482F865100E21427B024482F831100A
:10508400417B491C41730421417001210170DFF807
:10509400DC5822000121280003F0AAFE0220A5F812
:1050A4007E0394F8090104F01FFE31BD4FF4C041A2
:1050B4004843401C0100481E0029FBD170472DE9DC
:1050C400F04700260027DFF8A04822004FF49A7129
:1050D4004FF4807004F00BFF05002800C0B20028D4
:1050E4000DD000265FF000084FF49871200005F001
:1050F40019F8D4F83011884201D00022150022009A
:105104004FF49A714FF4407004F0F1FE0600300041
:10511400C0B200280DD000275FF000084FF498714A
:10512400200004F0FFFFD4F83011884201D000229F
:1051340016002800C0B2002803D13000C0B20028F5
:1051440004D0200000F09BF8002841D04FF49A7757
:105154005FF00008A14642463900484605F052F97E
:10516400012084F80B010F2084F80801002084F842
:1051740009010120A4F80E010520A4F8120106205B
:10518400A4F810015020A4F8F2001E20A4F8F400A2
:105194005F20A4F8F6000A20A4F8F8005A20A4F826
:1051A400FA004FF41670A4F8FC00A4F8FE0040F2D4
:1051B400B220A4F800014FF47A71A4F80211A4F803
:1051C40004014FF42F70A4F8060100F0F5F82CE068
:1051D4002800C0B2012812D13000C0B200280ED17C
:1051E40022004FF49A714FF4807004F080FE220084
:1051F4004FF49A714FF4407004F040FF15E028001A
:10520400C0B2002811D13000C0B201280DD1220053
:105214004FF49A714FF4407004F069FE22004FF489
:105224009A714FF4807004F029FF05F01FF9DFF83C
:105234004077387A00280FD1787A00280CD15FF0B3
:105244001608DFF8309717F1080A424649465046D7
:1052540005F0AAF905F087F945F25550B98881425D
:1052640005D1B978B4F8102189B2914205D0B4F8C7
:105274001011B970B88005F076F9BDE8F087020026
:10528400002092F80B11012913D1B2F81011002952
:105294000FD0B2F80E1115290BDA92F808111F2954
:1052A40007DAB2F8F410292903DAB2F8F610502913
:1052B40001DA01210800C0B270472DE9F84F002639
:1052C4000027DFF8B4462200B4214FF4A06004F0B4
:1052D4000EFE05002800C0B200280CD000265FF0A6
:1052E4000008B021200004F01DFFD4F8B01088425B
:1052F40001D0002215002200B4214FF4E06004F034
:10530400F6FD06003000C0B200280CD000275FF084
:105314000008B021200004F005FFD4F8B010884242
:1053240001D00022160056EA0500C0B2002818D1A8
:10533400B4275FF00008A14642463900484605F00C
:1053440061F85FF06309DFF834A614F1010B4A46F3
:105354005146584605F028F96320207000F04BF8B8
:1053640028E02800C0B2012810D13000C0B20028C3
:105374000CD12200B4214FF4A06004F0B8FD220047
:10538400B4214FF4E06004F079FE13E02800C0B2C9
:1053940000280FD13000C0B201280BD12200B42163
:1053A4004FF4E06004F0A3FD2200B4214FF4A060A8
:1053B40004F064FEBDE8F18F70B50024DFF8A86541
:1053C4000020C6F830014FF49871300004F0AAFEB2
:1053D400C6F8300132004FF49A714FF4807004F033
:1053E4004DFE050032004FF49A714FF4407004F002
:1053F40045FEC0B270BD70B50024DFF87C650020A6
:10540400C6F8B000B021300004F08CFEC6F8B0003D
:105414003200B4214FF4A06004F030FE05003200E5
:10542400B4214FF4E06004F029FEC0B270BD2DE950
:10543400F84F05000E00170000245FF000081F203D
:10544400210089B239448870641C3000C0B2F1284C
:105454001BDB200080B238448670641C00202100CD
:1054640089B239448870641CB1465FFA89F9AA4646
:10547400200080B2384410F1020B4A465146584687
:1054840005F092F854FA86F438E041F22340385C8F
:1054940000280ED1B1465FFA89F9AA46200080B2ED
:1054A400384410F1020B4A465146584605F07CF840
:1054B4000EE0B1465FFA89F95FF0000A200080B27D
:1054C400384410F1020B52464946584604F09AFFFC
:1054D40054FA86F441F22440385C210089B23944FC
:1054E4008870641C0020210089B239448870641CCF
:1054F4000020210089B239448870641C210089B2DB
:10550400B81C04F00FFE0100200080B23844817002
:10551400641C080080B2000A220092B23A449070DF
:10552400641C3C80200080B2BDE8F28F70B504009A
:10553400002600251F20310089B26054761CDFF854
:10554400200D90F8EC12320092B2A154761C90F81F
:10555400ED02310089B26054761C0020310089B21A
:105564006054761C0020310089B26054761C3100EE
:1055740089B2200004F0D6FD0100300080B221542D
:10558400761C080080B2000A320092B2A054761C45
:10559400300080B270BD70B50400002600251F20C5
:1055A400310089B26054761CDFF8B40C90F8E41230
:1055B400320092B2A154761C90F8E502310089B20F
:1055C4006054761C0020310089B26054761C00209F
:1055D400310089B26054761C310089B2200004F095
:1055E400A1FD0100300080B22154761C080080B275
:1055F400000A320092B2A054761C300080B270BD12
:10560400F8B504000D00002700261F20390089B2D8
:10561400214488707F1C2800C0B23B2810D1DFF8D9
:10562400400C90F8E4123A0092B2224491707F1C2C
:1056340090F8E502390089B2214488707F1C13E098
:105644002800C0B23A280FD1DFF8140C90F8EC12FD
:105654003A0092B2224491707F1C90F8ED02390016
:1056640089B2214488707F1C0020390089B221440A
:1056740088707F1C0020390089B2214488707F1C07
:10568400390089B2A01C04F04DFD0100380080B23D
:10569400204481707F1C080080B2000A3A0092B254
:1056A400224490707F1C2780380080B2F2BD2DE91F
:1056B400F84F04000D0016005FF0000A00271F20B9
:1056C400514689B2214488701AF1010AB0465FFA42
:1056D40088F8A946504680B2204410F1020B424695
:1056E4004946584604F060FF5AFA86FA00205146AB
:1056F40089B2214488701AF1010A0020514689B206
:10570400214488701AF1010A514689B2A01C04F0A0
:1057140009FD0100504680B2204481701AF1010A4B
:10572400080080B2000A524692B2224490701AF1E4
:10573400010AA4F800A0504680B2BDE8F28F70B50B
:105744000400002600251F20310089B221448870FE
:10575400761C8548B0F80E11320092B22244917042
:10576400761CB0F81211320092B222449170761C69
:10577400B0F81011320092B222449170761C90F865
:105784000C11320092B222449170761CB0F81411BC
:1057940089B2090A320092B222449170761CB0F8A0
:1057A4001411320092B222449170761CB0F8F210B7
:1057B40089B2090A320092B222449170761CB0F880
:1057C400F210320092B222449170761CB0F8F410B8
:1057D40089B2090A320092B222449170761CB0F860
:1057E400F410320092B222449170761CB0F8F61094
:1057F40089B2090A320092B222449170761CB0F840
:10580400F610320092B222449170761CB0F8F8106F
:1058140089B2090A320092B222449170761CB0F81F
:10582400F810320092B222449170761CB0F8FA104B
:1058340089B2090A320092B222449170761CB0F8FF
:10584400FA10320092B222449170761CB0F8FC1027
:1058540089B2090A320092B222449170761CB0F8DF
:10586400FC10320092B222449170761CB0F8FE1003
:1058740089B2090A320092B222449170761CB0F8BF
:10588400FE10320092B222449170761CB0F80011DE
:1058940089B2090A320092B222449170761CB0F89F
:1058A4000011320092B222449170761CB0F80211B9
:1058B40089B2090A320092B222449170761CB0F87F
:1058C4000211320092B222449170761CB0F8041195
:1058D40089B2090A320092B222449170761CB0F85F
:1058E4000411320092B222449170761CB0F8061171
:1058F40089B2090A320092B222449170761CB0F83F
:105904000601310089B221448870761C41F224409A
:10591400205C310089B221448870761C002031005B
:1059240089B221448870761C0020310089B2214458
:105934008870761C310089B2A01C04F0F3FB0100CE
:10594400300080B220448170761C080080B2000AC6
:10595400320092B222449070761C2680300080B2CD
:1059640070BD0000EC57002030590020384500205D
:10597400485E0020B0130108945C0020740D0108F7
:105984002DE9F24F84B00500160000240020ADF884
:105994000C0000271F20210089B231448870641C48
:1059A4009DF81000002840F0C3822800C0B20D28E2
:1059B40080F2A1835FF0A008DFF8A8982800C0B2A5
:1059C40008FB00F04844407F210089B231448870CC
:1059D400641C2800C0B208FB00F04844807FC0F378
:1059E400C0012800C0B208FB00F04844807FC0F327
:1059F4008000800050EAC1002900C9B208FB01F10F
:105A04004944897FC1F3400150EA41002900C9B2E9
:105A140008FB01F14944897F11F001010843210089
:105A240089B231448870641C2800C0B208FB00F0BD
:105A3400484490F82000210089B231448870641CE5
:105A44001C2002902800C0B208FB00F04844263015
:105A54000190200080B2304410F1020A029A0199A8
:105A6400504604F0A1FD1C342800C0B208FB00F02D
:105A74004844B0F8420080B2000A210089B231449F
:105A84008870641C2800C0B208FB00F04844B0F8D9
:105A94004200210089B231448870641C2800C0B2DD
:105AA40008FB00F04844B0F8440080B2000A21002A
:105AB40089B231448870641C2800C0B208FB00F02D
:105AC4004844B0F84400210089B231448870641C11
:105AD4002800C0B208FB00F04844B0F8460080B289
:105AE400000A210089B231448870641C2800C0B2C5
:105AF40008FB00F04844B0F84600210089B2314464
:105B04008870641C2800C0B208FB00F04844B0F858
:105B1400480080B2000A210089B231448870641CB4
:105B24002800C0B208FB00F04844B0F84800210047
:105B340089B231448870641C2800C0B208FB00F0AC
:105B44004844B0F84A0080B2000A210089B23144C6
:105B54008870641C2800C0B208FB00F04844B0F808
:105B64004A00210089B231448870641C2800C0B204
:105B740008FB00F04844B0F84C0080B2000A210051
:105B840089B231448870641C2800C0B208FB00F05C
:105B94004844B0F84C00210089B231448870641C38
:105BA4002800C0B208FB00F04844B0F84E0080B2B0
:105BB400000A210089B231448870641C2800C0B2F4
:105BC40008FB00F04844B0F84E00210089B231448B
:105BD4008870641C2800C0B208FB00F04844B0F888
:105BE400500080B2000A210089B231448870641CDC
:105BF4002800C0B208FB00F04844B0F8500021006F
:105C040089B231448870641C2800C0B208FB00F0DB
:105C14004844B0F8520080B2000A210089B23144ED
:105C24008870641C2800C0B208FB00F04844B0F837
:105C34005200210089B231448870641C2800C0B22B
:105C440008FB00F04844B0F87C0080B2000A210050
:105C540089B231448870641C2800C0B208FB00F08B
:105C64004844B0F87C00210089B231448870641C37
:105C74002800C0B208FB00F0484490F87E002100E0
:105C840089B231448870641C2800C0B208FB00F05B
:105C9400484490F87F00210089B231448870641C24
:105CA4002800C0B208FB00F0484490F880002100AE
:105CB40089B231448870641C2800C0B208FB00F02B
:105CC400484490F88100210089B231448870641CF2
:105CD4002800C0B208FB00F0484490F8820021007C
:105CE40089B231448870641C2800C0B208FB00F0FB
:105CF400484490F88300210089B231448870641CC0
:105D04002800C0B208FB00F0484490F88400210049
:105D140089B231448870641C2800C0B208FB00F0CA
:105D2400484490F88600210089B231448870641C8C
:105D3400042000902800C0B208FB00F0484410F191
:105D4400870A200080B2304410F1020B009A5146B9
:105D5400584604F029FC241D2800C0B208FB00F0BA
:105D64004844B0F88C0080B2000A210089B2314462
:105D74008870641C2800C0B208FB00F04844B0F8E6
:105D84008C00210089B231448870641C2800C0B2A0
:105D940008FB00F04844B0F88E0080B2000A2100ED
:105DA40089B231448870641C2800C0B208FB00F03A
:105DB4004844B0F88E00210089B231448870641CD4
:105DC4002800C0B208FB00F04844B0F8900080B24C
:105DD400000A210089B231448870641C2800C0B2D2
:105DE40008FB00F04844B0F89000210089B2314427
:105DF4008870641C2800C0B208FB00F04844B0F866
:105E0400920080B2000A210089B231448870641C77
:105E14002800C0B208FB00F04844B0F8920021000A
:105E240089B231448870641C2800C0B208FB00F0B9
:105E34004844B0F8940080B2000A210089B2314489
:105E44008870641C2800C0B208FB00F04844B0F815
:105E54009400210089B231448870641C2800C0B2C7
:105E640008FB00F04844B0F8960080B2000A210014
:105E740089B231448870641C2800C0B208FB00F069
:105E84004844B0F89600210089B231448870641CFB
:105E94002800C0B208FB00F04844B0F8980080B273
:105EA400000A210089B231448870641C2800C0B201
:105EB40008FB00F04844B0F89800210089B231444E
:105EC4008870641C2800C0B208FB00F04844B0F895
:105ED4009A0080B2000A210089B231448870641C9F
:105EE4002800C0B208FB00F04844B0F89A00210032
:105EF40089B231448870641C2800C0B208FB00F0E9
:105F04004844B0F89C0080B2000A210089B23144B0
:105F14008870641C2800C0B208FB00F809EB080074
:105F2400B0F89C00210089B231448870641CE2E01E
:105F3400002007003800C0B20C2880F2DC805FF03B
:105F4400A008DFF820933800C0B208FB00F04844F2
:105F5400007A002840F0B880781C210089B23144CE
:105F64008870641C3800C0B208FB00F04844407FCD
:105F7400210089B231448870641C3800C0B208FB27
:105F840000F04844807FC0F3C0013800C0B208FB71
:105F940000F04844807FC0F38000800050EAC100D4
:105FA4003900C9B208FB01F14944897FC1F34001BA
:105FB40050EA41003900C9B208FB01F14944897F24
:105FC40011F001010843210089B231448870641C36
:105FD4003800C0B208FB00F0484490F820002100CB
:105FE40089B231448870641C1C2000903800C0B20F
:105FF40008FB00F0484410F1260A200080B2304427
:1060040010F1020B009A5146584604F0CDFA1C34A4
:106014003800C0B208FB00F04844B0F8460080B233
:10602400000A210089B231448870641C3800C0B26F
:1060340008FB00F04844B0F84600210089B231441E
:106044008870641C3800C0B208FB00F04844B0F803
:10605400480080B2000A210089B231448870641C6F
:106064003800C0B208FB00F04844B0F848002100F2
:1060740089B231448870641C3800C0B208FB00F057
:10608400484490F88600210089B231448870641C29
:106094003800C0B208FB00F04844B0F8920080B267
:1060A400000A210089B231448870641C3800C0B2EF
:1060B40008FB00F809EB0800B0F89200210089B24F
:1060C40031448870641C14E0781C210089B2314486
:1060D4008870641C5FF040084FF0FF09200080B214
:1060E400304410F1020A4A464146504604F08AF907
:1060F40040347F1C1EE70020210089B2314488709F
:10610400641C0020210089B231448870641C210081
:1061140089B2B01C04F006F80100200080B23044BB
:106124008170641C080080B2000A220092B23244DA
:106134009070641C3480200080B205B0BDE8F08FFC
:106144002DE9F74F82B004005FF000080020002121
:10615400002500260027424692B2A25C8DF800205A
:1061640018F101085FF0000948469DF80010C0B21C
:10617400884269D2404680B22044060004980079DF
:106184004000B178401805005FF0A00ADFF8D4B0F1
:106194002800C0B20AFB00F058441A300700280057
:1061A400C0B20AFB00F05844007A00280ED0280040
:1061B400C0B20AFB00F058440021017201202900FA
:1061C400C9B20AFB01FA0BF80A002FE00122391DBB
:1061D400301D04F03DFA002809D1B079B97988421C
:1061E40005D196F86C0097F86C10884207D001200E
:1061F4002900C9B20AFB01FA0BF80A0016E02800CC
:10620400C0B20AFB00F058444068DFF84C18B1F8FB
:1062140012114018DFF844180968884206D2012098
:106224002900C9B20AFB01FA0BF80A005FF0840ADC
:106234000196BB4652460199584604F0B5F918F147
:10624400840819F101098FE7DFF81408017900EBDC
:1062540081000021C0F87C1205B0BDE8F08F000079
:10626400C4480020B83D00202DE9F44F88B0040054
:106274000D00002600275FF0000800200021DFF851
:10628400E4A79AF80090B9F101095FEA690919F1E4
:106294000109B4F80320ADF80020BDF800202B79E3
:1062A4005B1C9A4204D1207A95F89412884213D048
:1062B4004846BDF8001080B2884202D1207A3A28BC
:1062C4000AD04846BDF8001080B2884240F03B83B3
:1062D400207A3B2840F0378301200600A07800286C
:1062E40005D114F10C0007006089804605E014F123
:1062F4000A000700A0780B388046207A3A2803D198
:106304003A2085F8940205E0207A3B2802D13B200C
:1063140085F8940295F89402362800F0E88237282C
:1063240012D0382817D039283FD03A2865D03B28D6
:1063340000F07B813C2800F08A823D2800F0D68260
:10634400F72800F07181FEE22A00414689B2380044
:10635400FFF7F6FEF7E241F22840DFF80C170A587F
:1063640032F002020A50DFF804070078C0071BD499
:10637400DFF8FC16087801EB80006422C0F81027CF
:1063840001200A780A4482F8AC0605200A780A44F7
:1063940082F86C000878401C0870D1F8A408002822
:1063A40002D12020C1F8A408CDE241F22840DFF850
:1063B400B8160A5832F002020A50002085F8A102E9
:1063C400DFF8AC16087801EB80006422C0F81027CF
:1063D40001200A780A4482F8AC0605200A780A44A7
:1063E40082F86C000878401C0870D1F8A4080028D2
:1063F40002D12020C1F8A408A5E2404680B20228B8
:1064040040F00B8141F22840DFF85CB61BF8001025
:10641400490737D5397885F8EC12797885F8ED1283
:106424005BF8001031F004014BF80010DFF844165B
:106434000878002803D000200870042068713A21ED
:106444005846FFF7DDF8ABF80000DFF824160878AB
:1064540001EB80006422C0F8102701200A780A4466
:1064640082F8AC0605200A780A4482F86C000878A1
:10647400401C0870D1F8A408002802D12020C1F8DB
:10648400A408B9E0DFF8D4B5DBF80000DFF8E815BC
:106494000860387800286BD101200600DBF8000082
:1064A400C5F8F0020120DFF8CC150870387885F8BB
:1064B400EC02787885F8ED02012068711AF1040085
:1064C400FFF734F88AF80100DFF8A415087801EB27
:1064D40080006422C0F8102701200A780A4482F858
:1064E400AC0602200A780A4482F86C000878401C42
:1064F4000870D1F8A408002802D12020C1F8A4080B
:10650400087801EB80006422C0F8102701200A7883
:106514000A4482F8AC0602200A780A4482F86C0025
:106524000878401C0870D1F8A408002802D1202063
:10653400C1F8A408087801EB80006422C0F8102791
:1065440001200A780A4482F8AC0602200A780A4438
:1065540082F86C000878401C0870D1F8A408002860
:1065640002D12020C1F8A408002085F8A10243E04C
:1065740095F8EC023978884204D195F8ED027978DF
:10658400884234D0DBF80000C5F8F002387885F88A
:10659400EC02787885F8ED02DFF8D8140878002842
:1065A40003D000200870042068711AF10400FEF77B
:1065B400BDFF8AF80100DFF8B814087801EB800009
:1065C4006422C0F8102701200A780A4482F8AC0635
:1065D40002200A780A4482F86C000878401C08708B
:1065E400D1F8A408002802D12020C1F8A408002072
:1065F4000600DBF80000A8600020DFF8641481F8CE
:10660400980295F8ED3295F8EC2201219AF80000F1
:10661400401E80B201F07EFB05E000200600DFF89A
:106624003C040068A8608EE18DE1404680B20228F7
:1066340040F0078141F22840DFF82CB41BF8001029
:10664400090737D5397885F8E412797885F8E512A1
:106654005BF8001031F008014BF80010DFF8141457
:106664000878002803D000200870042068713B21BA
:106674005846FEF7C5FFABF80000DFF8F4130878BE
:1066840001EB80006422C0F8102701200A780A4434
:1066940082F8AC0605200A780A4482F86C0008786F
:1066A400401C0870D1F8A408002802D12020C1F8A9
:1066B400A408B6E0DFF8A4B3DBF80000DFF8B813F1
:1066C4000860387800286AD101200600002085F887
:1066D400A1020120DFF89C130870387885F8E402E1
:1066E400787885F8E502DBF80000C5F8E8020120B7
:1066F40068711AF12400FEF74EFF8AF80200DC49A3
:10670400087801EB80006422C0F8102701200A7881
:106714000A4482F8AC0603200A780A4482F86C0022
:106724000878401C0870D1F8A408002802D1202061
:10673400C1F8A408087801EB80006422C0F810278F
:1067440001200A780A4482F8AC0603200A780A4435
:1067540082F86C000878401C0870D1F8A40800285E
:1067640002D12020C1F8A408087801EB800064223B
:10677400C0F8102701200A780A4482F8AC060320E6
:106784000A780A4482F86C000878401C0870D1F832
:10679400A408002802D12020C1F8A40841E095F8FB
:1067A400E4023978884204D195F8E5027978884280
:1067B40032D0DBF80000C5F8E802387885F8E40246
:1067C400787885F8E502AB490878002803D00020E2
:1067D4000870042068711AF12400FEF7DCFE8AF8C0
:1067E4000200A349087801EB80006422C0F8102756
:1067F40001200A780A4482F8AC0603200A780A4485
:1068040082F86C000878401C0870D1F8A4080028AD
:1068140002D12020C1F8A40800200600DBF8000003
:10682400A86000208E4981F8980295F8E53295F821
:10683400E42202219AF80000401E80B201F06AFAB4
:1068440004E00020060085480068A8607BE040461C
:1068540080B2002849D0082007900697DFF81CA2D0
:10686400BDF800104FF4A07041430AEB0100A0F200
:10687400371B079A0699584603F096FE08200590A0
:106884000497BDF800004100A02041430AEB010039
:10689400B0F1970B059A0499584603F085FE082039
:1068A400039017F109000290BDF800104FF4A07096
:1068B40041430AEB0100A0F22F1B039A02995846A8
:1068C40003F072FE5FF0080B17F109000190BDF8A8
:1068D40000004100A02041430AEB0100B0F18F0AFF
:1068E4005A460199504603F05FFE2CE02BE041F23A
:1068F4002840DFF874A15AF8001031F002014AF878
:106904000010012239005046FEF7D1FEAAF800001B
:106914005749087801EB80006422C0F81027012051
:106924000A780A4482F8AC0605200A780A4482F8F8
:106934006C000878401C0870D1F8A408002802D123
:106944002020C1F8A4083000C0B209B0BDE8F08F1F
:1069540030B4434A434B1B785B1E5B101371032313
:1069640093700323137082F894020B00DBB20224A9
:1069740093FBF4F504FB153382F8A332012382F868
:10698400A23230BC70472DE9F84F04000D00160008
:1069940000210020277A85F85470002285F85120C0
:1069A400002285F85220002285F82020B6F10B0839
:1069B4003A00D2B2302A02D0532A3ED03DE04046BB
:1069C400C0B2002838D0082214F11401A81D03F025
:1069D4003FFE00280DD05FF0080914F1140A15F1E8
:1069E400060B4A465146584603F0DEFD0020687106
:1069F40002E06879401C68716879032814DB082276
:106A0400A91D15F10E0003F023FE00280AD05FF043
:106A1400080915F1060A15F10E0B4A465146584667
:106A240003F0C2FD00206871DFF81C0D002180F81E
:106A34006C10012180F85810FFE795F82000002819
:106A440005D1012085F85100022085F8520095F8FF
:106A5400200080B2BDE8F28F30590020FC5E002097
:106A6400C4480020485D0020B0000020E85E0020FB
:106A7400E0140020AC000020F45E0020B83D0020AB
:106A84002DE9F64F83B004000D001E005FF00008EE
:106A940000208DF801000020ADF80200DFF8AC7C86
:106AA4000020388041F230495FF0000ABB4652466C
:106AB4004946584603F0A6FCDFF8940C40798DF85B
:106AC40000009DF800001F2802D160788DF80000B6
:106AD4009DF8000041F226417854002041F2234100
:106AE400785441F22448002007F80800BDF81090BB
:106AF4009DF80000042834D0212800F0688223285F
:106B040000F01181242800F00785252800F0AA80D0
:106B1400262800F05A81272800F0AD81282800F0AB
:106B24000082292835D0362800F07184372800F0F7
:106B3400D784382800F09582392800F01E833A283B
:106B440000F0A7833B2800F00384F42800F0278199
:106B5400F52800F0D080F7286AD0F82875D000F026
:106B6400F8BC484680B2002811D12800C0B2FF28E2
:106B740004D1012041F22341785402E0032007F8B4
:106B840008003A0000210020FEF751FC388000F094
:106B9400E0BC484680B2182848D12800C0B2FF287B
:106BA4003BD1162002900194DFF8D4ACD346029A6C
:106BB4000199584603F0F8FC0722DFF8C81C2000AE
:106BC40003F046FD002824D10522DFF8281D14F126
:106BD4000F0003F03DFD002808D00522DFF8181D42
:106BE40014F10F0003F034FD002812D11622DFF84F
:106BF4000C1D504603F02CFD002806D0022041F263
:106C04002341785403F0AFFC0AE0022007F808009F
:106C140006E0022007F8080002E0032007F8080055
:106C24003A0000210020FEF702FC388000F091BCFD
:106C3400484680B2142806D13A003221DFF8C00C4D
:106C4400FEF7F5FB388000F084BC484680B200288B
:106C540006D13A000C21DFF8AC0CFEF7E8FB3880D3
:106C640000F077BC484680B2052842D12800C0B263
:106C7400FF2835D120781F282EDADFF88C0C00216C
:106C8400817300214173417B00EB81014FF4C87291
:106C9400C1F8A8202178427B024451740121427B2F
:106CA400024482F885100621427B024482F8651072
:106CB4000E21427B024482F83110417B491C41730E
:106CC40004214170012101702078DFF8401C81F813
:106CD4000801FEF771FB06E0022007F8080002E055
:106CE400032007F808003A0000210020FEF79FFB6C
:106CF400388000F02EBC484680B2002811D128000C
:106D0400C0B2FF2804D13800FEF719FD388008E02E
:106D1400032007F808003A0000210020FEF787FB53
:106D2400388000F016BC484680B2002836D12800CE
:106D3400C0B2FF2829D10120DFF8D41B0870DFF886
:106D4400C80B00218173002141730F21427B02444F
:106D540082F86510417B00EB81014FF4C872C1F8E1
:106D6400A8200221427B024451740121427B024447
:106D740082F885100421427B024482F83110417B61
:106D8400491C41730421417002E0032007F8080004
:106D94003A0000210020FEF74AFB3880D9E3484638
:106DA40080B220280AD12800C0B2FF2803D12000D5
:106DB40000F0E7FB02E0032007F808003A00002196
:106DC4000020FEF734FB3880C3E3484680B206282F
:106DD40050D12800C0B2FF2843D1207801281CD10B
:106DE400DFF8300B817951F0080181716178C907AE
:106DF40009D5DFF8241B8A8809680A61C17851F033
:106E04000801C17030E0DFF8101B8A8809684A6104
:106E1400C17811F0F701C17026E0207800281CD158
:106E2400DFF8F00A817911F0F70181716178C907FF
:106E340009D5DFF8E41A8A8809680A61C17851F033
:106E44000801C17010E0DFF8D01A8A8809684A6125
:106E5400C17811F0F701C17006E0022007F80800BC
:106E640002E0032007F808003A0000210020FEF7A2
:106E7400DEFA38806DE3484680B2062850D12800F7
:106E8400C0B2FF2843D1207801281CD1DFF8840A3E
:106E9400817951F0020181716178C90709D5DFF860
:106EA4007C1A8A8809680A61C17851F00201C170AC
:106EB40030E0DFF8681A8A8809684A61C17811F0FD
:106EC400FD01C17026E0207800281CD1DFF8440AB7
:106ED400817911F0FD0181716178C90709D5DFF865
:106EE4003C1A8A8809680A61C17851F00201C170AC
:106EF40010E0DFF8281A8A8809684A61C17811F01D
:106F0400FD01C17006E0022007F8080002E003203A
:106F140007F808003A0000210020FEF788FA3880BC
:106F240017E3484680B2062850D12800C0B2FF2893
:106F340043D1207801281CD1DFF8D809817951F098
:106F4400010181716178C90709D5DFF8041D8A88B8
:106F540009680A61C17851F00101C17030E0DFF8BD
:106F6400F01C8A8809684A61C17811F0FE01C17079
:106F740026E0207800281CD1DFF89809817911F0E7
:106F8400FE0181716178C90709D5DFF8C41C8A88BC
:106F940009680A61C17851F00101C17010E0DFF89D
:106FA400B01C8A8809684A61C17811F0FE01C17079
:106FB40006E0022007F8080002E0032007F80800B2
:106FC4003A0000210020FEF732FA3880C1E2484638
:106FD40080B2062844D12800C0B2FF2837D12078D7
:106FE400012816D1DFF82C09817951F0040181714F
:106FF4006178C9072ED5DFF80C1D8A8809680A61F3
:10700400C16851F00401C160DFF8FC1C09688161AA
:1070140020E02078002816D1DFF8F808817911F0F3
:10702400FB0181716178C90714D5DFF8D81C8A88FF
:1070340009680A61C16851F00401C160DFF8C81C25
:107044000968816106E0022007F8080002E00320D5
:1070540007F808003A0000210020FEF7E8F938801C
:1070640077E2484680B2052840F0868041F2284005
:10707400395851F0020139502800C0B2FF2851D0CC
:107084002800C0B200284DD0207810F0030F02D1A0
:107094002078002821D1DFF8740C0321017002212B
:1070A4008170382180F894122900C9B2491E491010
:1070B4000171022180F8A2122900C9B2491C0222DE
:1070C40091FBF2F302FB131180F8A312217880F8EC
:1070D400A412310003F012FD48E0DFF8300C032164
:1070E400017002218170382180F894122900C9B2FC
:1070F400491E49100171022180F8A2122900C9B267
:10710400491C022291FBF2F302FB131180F8A31233
:10711400217880F8A412310003F0F0FC022007F873
:10712400080023E0DFF8E40B0321017002218170E1
:10713400382180F894122900C9B2491E49100171FE
:10714400022180F8A2122900C9B2491C022291FB33
:10715400F2F302FB131180F8A312217880F8A41231
:10716400310003F0CBFC032007F808003A000021AB
:107174000020FEF75CF93880EBE1484680B2052830
:1071840040F0868041F22840395851F002013950CC
:107194002800C0B2FF2851D02800C0B200284DD02A
:1071A400207810F0030F02D12078002821D1DFF8D5
:1071B4005C0B0321017002218170392180F8941243
:1071C4002900C9B2491E49100171022180F8A21296
:1071D4002900C9B2491C022291FBF2F302FB1311EC
:1071E40080F8A312217880F8A412310003F086FC01
:1071F40048E0DFF8180B0321017002218170392166
:1072040080F894122900C9B2491E49100171022163
:1072140080F8A2122900C9B2491C022291FBF2F3A0
:1072240002FB131180F8A312217880F8A412310014
:1072340003F064FC022007F8080023E0DFF8CC0A1E
:107244000321017002218170392180F894122900F0
:10725400C9B2491E49100171022180F8A212290005
:10726400C9B2491C022291FBF2F302FB131180F80C
:10727400A312217880F8A412310003F03FFC03200C
:1072840007F808003A0000210020FEF7D0F8388003
:107294005FE1484680B2202859D141F2284039584C
:1072A40051F0040139502800C0B2FF2846D028000C
:1072B400C0B2002842D0DFF8580A0570DFF84CAAA3
:1072C400681E8AF8030002208AF8020003208AF864
:1072D40000003A208AF894022800C0B2401E4010F0
:1072E4008AF804002800C0B2401C022190FBF1F28D
:1072F40001FB12008AF8A3021D208AF8A2020020D2
:10730400217E30290AD1617E302907D1A17E30291E
:1073140004D1E17E302901D1182100E01C21C9B239
:10732400029101941AF5297B029A0199584603F0B7
:107334003BF93100504603F0E1FB02E0032007F87B
:1073440008003A0000210020FEF771F8388000E1BF
:10735400484680B2202859D141F22840395851F08A
:10736400080139502800C0B2FF2846D02800C0B216
:10737400002842D0DFF898090570DFF890A9681E4C
:107384008AF8030002208AF8020003208AF8000029
:107394003B208AF894022800C0B2401E40108AF8AC
:1073A40004002800C0B2401C022190FBF1F201FB52
:1073B40012008AF8A3021D208AF8A2020020217E6E
:1073C40030290AD1617E302907D1A17E302904D128
:1073D400E17E302901D1182100E01C21C9B20291BB
:1073E40001941AF5297B029A0199584603F0DCF8B6
:1073F4003100504603F082FB02E0032007F8080046
:107404003A0000210020FEF712F83880A1E0484637
:1074140080B2212863D141F22840395851F0020149
:1074240039502800C0B2FF284BD02800C0B2002831
:1074340047D0DFF8D8A89AF80500022849D0681E7A
:107444008AF8030002208AF8020003208AF8000068
:1074540036208AF894022800C0B2401E40108AF8F0
:1074640004002800C0B2401C022190FBF1F201FB91
:1074740012008AF8A30260788AF8A4021E208AF80F
:10748400A2020020217E30290AD1617E302907D151
:10749400A17E302904D1E17E302901D1182100E0F8
:1074A4001C21C9B2491C029101941AF5297B029A44
:1074B4000199584603F078F83100504603F01EFB5A
:1074C40007E03100DFF8440803F018FB032007F855
:1074D40008003A0000210020FDF7A9FF388038E0B9
:1074E400484680B2052816D12078002802D020789A
:1074F400FF2807D13A002178681EC0B2FEF740FA8F
:10750400388008E0022007F808003A000021002033
:10751400FDF78DFF38801CE0484680B20C280FD15F
:107524005FF0080A0194DFF878BD52460199584685
:1075340003F03AF8002007F80800FDF75CFF02E0CA
:10754400012007F808003A0000210020FDF76FFF32
:1075540038803888002810D19DF8010000280CD10B
:10756400012041F223417854042007F808003A002E
:1075740000210020FDF75BFF3880388805B0BDE8A6
:10758400F08F70B5040001250026E0493000C0B238
:10759400205CA1F80E01761C3000C0B2205CA1F87A
:1075A4001201761C3000C0B2205CA1F81001761CD8
:1075B4003000C0B2205C81F80C01761C3000C0B2EF
:1075C400205C0002A1F81401761CB1F814213000EB
:1075D400C0B2205C0243A1F81421761C3000C0B272
:1075E400205C0002A1F8F200761CB1F8F220300011
:1075F400C0B2205C0243A1F8F220761C3000C0B275
:10760400205C0002A1F8F400761CB1F8F4203000EC
:10761400C0B2205C0243A1F8F420761C3000C0B252
:10762400205C0002A1F8F600761CB1F8F6203000C8
:10763400C0B2205C0243A1F8F620761C3000C0B230
:10764400205C0002A1F8F800761CB1F8F8203000A4
:10765400C0B2205C0243A1F8F820761C3000C0B20E
:10766400205C0002A1F8FA00761CB1F8FA20300080
:10767400C0B2205C0243A1F8FA20761C3000C0B2EC
:10768400205C0002A1F8FC00761CB1F8FC2030005C
:10769400C0B2205C0243A1F8FC20761C3000C0B2CA
:1076A400205C0002A1F8FE00761CB1F8FE20300038
:1076B400C0B2205C0243A1F8FE20761C3000C0B2A8
:1076C400205C0002A1F80001761CB1F80021300012
:1076D400C0B2205C0243A1F80021761C3000C0B285
:1076E400205C0002A1F80201761CB1F802213000EE
:1076F400C0B2205C0243A1F80221761C3000C0B263
:10770400205C0002A1F80401761CB1F804213000C9
:10771400C0B2205C0243A1F80421761C3000C0B240
:10772400205C0002A1F80601761CB1F806213000A5
:10773400C0B2205C0243A1F80621761CFDF73CFE92
:107744002800C0B270BD0000885B0020B00000209B
:10775400645A00202DE9F04704000D00002600279C
:107764005FF00009DFF8F08B98F8A40810F0810F9F
:1077740040F08380E088052811DB14F19E0003F0BB
:10778400BDFA00280BD0E088204480890600E188F7
:10779400891E14F10E0002F0C5FC070008E0E08821
:1077A400002803D1FF2007003E0001E0FF2006006F
:1077B4003000390080B289B2884231D12B00E2888E
:1077C400217914F10E00FFF75BF98146484680B237
:1077D400002852D0DFF8840B007810F00E0F4CD143
:1077E40098F8000008EB80006421C0F8101701200D
:1077F40098F80010414481F8AC06052098F8001070
:10780400414481F86C0098F80000401C88F800009E
:10781400D8F8A408002802D12020C8F8A4082CE035
:10782400DFF818AD012041F224410AF80100524664
:1078340000210020FDF7FBFDAAF8000098F80000E5
:1078440008EB80006421C0F81017012098F800109C
:10785400414481F8AC06052098F80010414481F8B1
:107864006C0098F80000401C88F80000D8F8A408C0
:10787400002802D12020C8F8A408BDE8F087000041
:10788400665E0020DC1401082DE9F043ADF5006DBF
:1078940081B005000E0017009846DDF820484FF42B
:1078A400006100220DF10409484602F0ABFD2200FC
:1078B40092B2310001A802F08CFC01A800902300D0
:1078C4009BB22A00DFF8981A404603F033FA404688
:1078D40003F014FA0090DFF88C3ADFF88C2ADFF812
:1078E400481D380003F026FA0DF5006D01B0BDE81F
:1078F400F0830000E4140108EC140108505E002039
:1079040000500008E8F7FF1FEC5700203059002012
:10791400E85E0020A45E00204C15010884150108CF
:107924002DE9F34F83B0050000260020ADF80800D0
:1079340000271F20310089B26854761C0498000E79
:10794400310089B26854761C0498000C310089B265
:107954006854761C0498000A310089B26854761C75
:107964000498310089B26854761CFF20310089B232
:107974006854761CDFF8C80B0178320092B2A9541F
:10798400761C4178320092B2A954761C8178320078
:1079940092B2A954761CC178320092B2A954761CD2
:1079A4000179320092B2A954761C4179320092B224
:1079B400A954761C8179320092B2A954761CC079FC
:1079C40010F0F000310089B26854761C5FF00808AA
:1079D400DFF8704B14F10709300080B205EB000AA0
:1079E40042464946504602F0DFFD08365FF0060A7B
:1079F400300080B205EB000B52462100584602F0DD
:107A0400D3FDB61D3020310089B26854761C312074
:107A1400310089B26854761CDFF82C0B8168090E9A
:107A2400320092B2A954761C8168090C320092B2D9
:107A3400A954761C8168090A320092B2A954761CB2
:107A44008068310089B26854761CDFF8000BD0F8E6
:107A54009410320092B2A954761CD0F8E800310098
:107A640089B26854761C0020DFF8C81BCA789207D4
:107A740001D5012210000022CB781B0701D5012378
:107A84001A000023CC78E40701D501242300741CD8
:107A9400097911F01F0151EA431151EA821151EAA7
:107AA400C011B6B2A9550020210089B26854641CE3
:107AB4000020210089B26854641C0020210089B28E
:107AC4006854641C0020210089B26854641C00209E
:107AD400210089B26854641C00263000C0B20C280E
:107AE40080F29280701C210089B26854641CA02723
:107AF400DFF8448B3000C0B278434044007A002859
:107B040073D1082001903000C0B27843404409305A
:107B14000090200080B205EB0009019A00994846C4
:107B240002F042FD08345FF008093000C0B2784327
:107B3400404410F1110A200080B205EB000B4A46C4
:107B44005146584602F030FD08343000C0B2784344
:107B54004044407F210089B26854641C3000C0B2A4
:107B640078434044807FC0F3C0013000C0B2784302
:107B74004044807FC0F38000800050EAC10031009F
:107B8400C9B279434144897FC1F3400150EA4100BD
:107B94003100C9B279434144897F11F0010108439E
:107BA400210089B26854641C3000C0B27843404458
:107BB40090F82000210089B26854641C3000C0B2DF
:107BC40078434044B0F84600210089B26854641CEC
:107BD4003000C0B207FB00F708EB070090F88600FE
:107BE400210089B26854641C0CE01527FF20009022
:107BF400200080B205EB0008009A3900404602F0EC
:107C040001FC1534761C68E7DFF8580B90F87A030A
:107C1400210089B26854641C0020210089B2685490
:107C2400641C210089B2280002F07CFA01002000C3
:107C340080B22954641C080080B2000A220092B267
:107C4400A854641C200080B205B0BDE8F08F000089
:107C54007C150108DFF8DC19087910F0220F0FD029
:107C64008879C0071BD4C878C00718D4DFF8F80A8D
:107C7400828800680261C87850F00100C8700EE084
:107C84008879C0070BD4C878C00708D5DFF8D80AAC
:107C9400828800684261C87810F0FE00C8700879D4
:107CA40010F0060F19D0DFF8C42A1078002804D089
:107CB4000879800701D5002010708879800720D4C6
:107CC400C87880071DD5DFF8580D828800684261A6
:107CD400C87810F0FD00C87013E08879800710D4CC
:107CE400DFF8880A007800280BD0C878800708D409
:107CF400DFF82C0D828800680261C87850F0020019
:107D0400C870704744150108FC5E0020C448002078
:107D1400485D002070B40C00E4B2012C40F0ED800A
:107D24001400E4B2002C5ED11C00E4B2002C05D097
:107D3400022C31D02FD3032C54D07CE1DFF83C4DFE
:107D44006578042D26D004256570DFF8244A0025C3
:107D5400A573002565730F25667B264486F8655058
:107D6400657B04EB85054FF4C866C5F8A860032558
:107D7400667B264475740125667B264486F8855007
:107D84000525667B264486F83150657B6D1C65733A
:107D9400042565704FE14EE1DFF8D4490025A57351
:107DA400002565730F25667B264486F86550657B40
:107DB40004EB85054FF4C866C5F8A8600425667B06
:107DC400264475740125667B264486F88550032570
:107DD400667B264486F83150657B6D1C65730425EB
:107DE400657028E127E11400E4B2012C30D11C00B5
:107DF400E4B2002C02D0012C29D01CE1DFF8704938
:107E04000025A573002565730F25667B264486F837
:107E14006550657B04EB85054FF4C866C5F8A8601A
:107E2400DFF8585CED786D1C667B2644757401257B
:107E3400667B264486F885500125667B264486F8B1
:107E44003150657B6D1C657304256570F3E0F2E0C9
:107E54001400E4B2022C40F0EE801C00E4B2012CC9
:107E640006D0022C0CD0042C12D0FF2C3DD0E2E022
:107E7400DFF8084C6578022D01D002256570DAE040
:107E8400DFF8F85B6C78002C01D000246C70D2E031
:107E9400DFF8E84B6578032D26D003256570DFF8FD
:107EA400D0480025A573002565730F25667B2644FD
:107EB40086F86550657B04EB85054FF4C866C5F804
:107EC400A8600925667B264475740125667B2644D3
:107ED40086F885500B25667B264486F83150657BF1
:107EE4006D1C657304256570A5E0DFF8905B6C7804
:107EF400002C01D000246C709DE00C00E4B2022C34
:107F040040F099801400E4B2002C38D11C00E4B293
:107F1400002C05D0022C30D02ED3032C2ED08AE096
:107F2400DFF8584B6578042D25D004256570DFF8FB
:107F340040480025A573002565730F25667B2644FC
:107F440086F86550657B04EB8505C826C5F8A860EE
:107F54000225667B264475740125667B264486F8D3
:107F640085500425667B264486F83150657B6D1C5C
:107F74006573042565705EE05DE05CE05BE0140021
:107F8400E4B2012C30D11C00E4B2002C02D0012C4C
:107F940029D050E0DFF8D8470025A5730025657384
:107FA4000F25667B264486F86550657B04EB8505C2
:107FB4004FF4C866C5F8A860DFF8C05AED786D1CA8
:107FC400667B264475740125667B264486F88550B5
:107FD4000225667B264486F83150657B6D1C6573EB
:107FE4000425657027E026E01400E4B2022C22D1B7
:107FF4001C00E4B2012C06D0022C0CD0042C12D0AC
:10800400FF2C11D017E0DFF8744A6578012D01D0F8
:10801400012565700FE0DFF8645A6C78002C01D0FC
:1080240000246C7007E006E0DFF8505A6C78002CEE
:1080340001D000246C7070BC70472DE9F44F04002B
:108044000D000026DFF898BADFF8981A584602F0B7
:1080540071FEDFF8947ADFF8941A380002F06AFEB1
:10806400DFF88C8ADFF88C1A404602F063FEDFF8F2
:10807400889A14F53472DFF8841A484602F05AFEDE
:10808400DFF87CAADFF87C1A504602F053FE59460A
:10809400280002F06FFE002835D0242715F1390896
:1080A40014F534793A004146484602F07DFA94F8D2
:1080B400D8022D2824D194F8DD022D2820D194F85B
:1080C400E2022D281CD194F8E7022D2818D1DFF8FC
:1080D400387A0120F8705FF0800815F1600914F512
:1080E4003D7A42464946504602F05EFA15F1600177
:1080F400380001F0D3FC00284CD00120060049E0F0
:108104000020060046E03900280002F033FE002873
:108114000BD0012006000020DFF8301481F80A019A
:108124000220DFF8E419C87034E04146280002F068
:1081340021FE002806D0002006000220DFF8C8191E
:10814400C87027E04946280002F014FE002806D033
:10815400012006000220DFF8B019C8701AE0514669
:10816400280002F007FE002814D001200600022097
:10817400DFF89419C8704AF6AA20DFF8D81B888063
:1081840002F0F1F90520FCF791FFDFF8CC0BDFF8E2
:10819400CC1B08603000C0B2BDE8F28FF8B5040013
:1081A4000D0000206178214491F86C603100C9B25F
:1081B40001290AD0022925D0032937D0042949D01E
:1081C40005295AD0232918D067E0DFF8940B0168F9
:1081D40014F1D000FFF7A4FBE080DFF8887BE0888F
:1081E4000090DFF8843B3A0014F1D0012800FFF737
:1081F4004BFB380002F094FE4FE0DFF8700B02F006
:108204008FFE4AE0DFF85C7BDFF8540B00680090D7
:10821400DFF86808C378DFF8502B3900DFF8500B1B
:1082240000F0B9F9380002F07BFE36E0DFF8347B69
:10823400DFF82C0B00680090DFF84008C378DFF803
:10824400282B3900DFF82C0B00F0F8F9380002F085
:1082540067FE22E0DFF8200BDFF8087BDFF8001B65
:10826400096800910378DFF8002B3900443000F0EE
:108274002FFA380002F054FE0FE0DFF8E87AAF4836
:1082840001880091DFF8E03A3A00811CDFF8EC0A3B
:1082940000F008F8380002F043FEC4F8A058F1BD1D
:1082A4002B5D00202DE9F043ADF5006D85B0050090
:1082B4000E0017009846DDF830484FF400610022A4
:1082C4000DF11409484602F09DF8042100220DF135
:1082D4001009484602F096F8022100220DF10C091B
:1082E400484602F08FF8200080B2000A8DF80C0096
:1082F40020008DF80D00220092B2310005A801F093
:1083040068FF022203A904A801F063FFDFF8F8075D
:1083140005A9029104A9019110F19801009110F1AD
:10832400960310F18E02DFF8581A404602F002FD5F
:10833400404602F0E3FC019015F534700090094BBF
:10834400094ADFF8401A380002F0F4FC0DF5006D1C
:1083540005B0BDE8F0830000E0140020D81400202C
:1083640008110108D45E0020F41401082DE9F04737
:1083740004000D00002000266178214491F86C70FF
:108384003900C9B201290AD0022930D003293BD0CF
:10839400042946D0052951D023290DD0BAE0A3A140
:1083A400280002F0E7FC002805D001200600DFF8D1
:1083B400B80902F0B5FDADE09DA1280002F0DAFC99
:1083C400002813D001200600DFF898830A22022136
:1083D40015F1080001F02CFF88F87A030A22022123
:1083E40015F10B0001F024FF88F87B0392E08FA1C4
:1083F400280002F0BFFC002805D001200600DFF8A9
:10840400680902F08DFD85E088A1280002F0B2FC25
:10841400002805D001200600DFF84C0902F080FD99
:1084240078E082A1280002F0A5FC002805D00120F4
:108434000600DFF8340902F073FD6BE07BA128002D
:1084440002F098FC002865D001200600DFF8180926
:1084540002F066FD41F2264038490A5C042A2DD117
:1084640041F223428A5C012A28D145F25550DFF8B3
:10847400E418888002F077F800284BD0DFF8080968
:10848400818800684161DFF80409818800684161DE
:108494004FF4FA70FCF70AFE4FF4FA70FCF706FE8C
:1084A4004FF4FA70FCF702FE4FF4FA70FCF7FEFD8D
:1084B400DFF8A408DFF8A41808602BE0085C29287A
:1084C40028D141F22340085C022823D141F2111043
:1084D400DFF88018888002F046F800281AD0DFF808
:1084E400A808818800684161DFF8A00881880068D5
:1084F40041614FF4FA70FCF7D9FD4FF4FA70FCF7C0
:10850400D5FD4FF4FA70FCF7D1FDDFF84C08DFF825
:108514004C1808600020934981F87D034FF40068EB
:108524005FF00009DFF840A84A464146504601F092
:1085340069FF3000C0B2BDE8F0870000B000002041
:10854400C05E002000500008B84B002030590020C5
:1085540010B400214278024492F86C201300DBB27C
:108564005B1E042B01D9223B13D18178002908D149
:1085740000214378034483F8AC164178491C4170C8
:1085840007E000214378034483F8AC164178491C82
:10859400417010BC70472DE9F041ADF5006D82B01B
:1085A40004000D0016001F004FF4006100220DF1BD
:1085B4000808404601F026FF022100220DF10608BA
:1085C400404601F01FFF012100220DF1040840463E
:1085D40001F018FF781C8DF80400012201A90DF1A7
:1085E400060001F0F6FD0722210002A801F0F1FDCA
:1085F40002A800900DF10603DDF82028DFF890179B
:10860400300002F097FB300002F078FB0090DFF8B6
:108614008437DFF884270449280002F08BFB0DF52A
:10862400006D02B0BDE8F081480F01083E00000073
:108634004F4B0000A45E0020B83D00202DE9F0411E
:10864400ADF5006D82B004000D0016001F004FF45C
:10865400006100220DF10808404601F0D3FE02211A
:1086640000220DF10608404601F0CCFE0121002253
:108674000DF10408404601F0C5FE781C8DF8040095
:10868400012201A90DF1060001F0A3FD072221003A
:1086940002A801F09EFD02A800900DF10603DDF88A
:1086A4002028DFF8F816300002F044FB300002F016
:1086B40025FB0090DFF8DC36DFF8DC26DFF8E01677
:1086C400280002F037FB0DF5006D02B0BDE8F08123
:1086D4002DE9F041ADF5006D82B004000D001600E7
:1086E4001F004FF4006100220DF10808404601F01C
:1086F40089FE022100220DF10608404601F082FEA7
:10870400012100220DF10408404601F07BFE781C93
:108714008DF80400012201A90DF1060001F059FDB4
:108724000922210002A801F054FD02A800900DF1D5
:108734000603DDF82028DFF86C16300002F0FAFAA0
:10874400300002F0DBFA0090DFF84836DFF8482604
:10875400DFF84C16280002F0EDFA0DF5006D02B0BA
:10876400BDE8F081384500207C150108AD000020EB
:10877400EC5700202DE9F84F00242000C0B20C284B
:1087840080F2A280002004002000C0B20C2880F2F5
:108794009B80DFF814965FF0A00ADFF810B6012280
:1087A4002000C0B20AFB00F0584410F11E0123005F
:1087B400DBB20320434309EB0300801C01F048FFB4
:1087C400002824D101222000C0B20AFB00F0584442
:1087D40010F120012300DBB20320434309EB030023
:1087E40001F036FF002812D101222000C0B20AFB9A
:1087F40000F0584410F186012300DBB20320434308
:1088040009EB0300401C01F023FF00285AD001208B
:1088140000902000C0B20AFB00F0584410F11E057D
:108824002100C9B20320414309EB0100861C009AD0
:108834002900300001F0B8FE01262000C0B20AFB76
:1088440000F0584410F120072100C9B2032041432D
:1088540009EB010832003900404601F0A5FE5FF043
:1088640001082000C0B20AFB00FA0BEB0A0010F169
:10887400860A2100C9B20320414309EB010010F12B
:10888400010942465146484601F08EFEDFF82015A4
:10889400087801EB80001422C0F8102701200A7820
:1088A4000A4482F8AC0601200A780A4482F86C0073
:1088B4000878401C0870D1F8A408002802D12020B0
:1088C400C1F8A408641C5FE70021DFF8E804C2785B
:1088D400920701D5012211000022C3781B0701D59C
:1088E40001231A000023C578ED0701D501252B00CB
:1088F400C579067916F01F06DBB256EA4316D2B2E2
:1089040056EA8216C9B256EAC116B54237D00021DA
:10891400C278920701D5012211000022C3781B07F7
:1089240001D501231A000023C578ED0701D50125DF
:108934002B00057915F01F0555EA431555EA8215F4
:1089440055EAC115C571DFF86814087801EB800099
:108954001422C0F8102701200A780A4482F8AC06D1
:1089640001200A780A4482F86C000878401C0870D8
:10897400D1F8A408002802D12020C1F8A408BDE839
:10898400F18F2DE9F84F002000242000C0B20C28FC
:1089940044DA01200090A025DFF810642000C0B262
:1089A4006843304410F11E07DFF8FC832100C9B28C
:1089B4000320414308EB010010F10209009A390039
:1089C400484601F0F1FD5FF001092000C0B26843A0
:1089D400304410F1200A2100C9B20320414308EBBE
:1089E400010B4A465146584601F0DEFD5FF0010B8B
:1089F4002000C0B205FB00F506EB050010F186056A
:108A04002100C9B20320414308EB0100461C5A4629
:108A14002900300001F0C8FD641CB6E7BDE8F18F01
:108A240084150108E3480079800726D5E248417897
:108A3400090722D400218173002141730F21427B55
:108A4400024482F86510417B00EB81014FF41672F9
:108A5400C1F8A8200B21427B024451740121427BBE
:108A6400024482F885100D21427B024482F83110C1
:108A7400417B491C4173042141707047C448002064
:108A840000207FF00901CD4AD2F894308B4203DBF9
:108A9400D2F8E8208A4205DAC9498A7852F00102FC
:108AA4008A7004E0C6498A7812F0FE028A70C549C9
:108AB400896811F1010F05D1C1498A7852F0020287
:108AC4008A7004E0BE498A7812F0FD028A70BC49BB
:108AD4008978002901D101210800C0B27047000043
:108AE400EC4D002010140108EC4F0020C8130108BD
:108AF400EC510020E0130108EC530020241301087A
:108B0400EC55002060140108645A00202DE9F84F48
:108B140086B0050000240020ADF8140000200021D8
:108B24005FF000080022012615F50E777E23A44687
:108B34001FFA8CFC07F80C30641C5523A4461FFA5A
:108B44008CFC07F80C30641C0023A4461FFA8CFC30
:108B540007F80C30641C0023A4461FFA8CFC07F8A9
:108B64000C30641C0023A4461FFA8CFC07F80C305C
:108B7400641C23009BB2FE54641C33009BB21B0A8A
:108B8400A4461FFA8CFC07F80C30641C5223A4463C
:108B94001FFA8CFC07F80C30641C0023A4461FFA4F
:108BA4008CFC07F80C30641C5FF000094846C0B226
:108BB400062810DA84484946C9B200EB8100D0F88F
:108BC4007C020A2804D2012010FA09F050EA0808AD
:108BD40019F10109EAE7200080B207F80080641C5B
:108BE4000820049079480390200080B207EB000A23
:108BF400049A0399504601F0D7FC083408200290E7
:108C0400DFF8CCA11AF107000190200080B207EB35
:108C1400000B029A0199584601F0C6FC08345FF033
:108C2400060BCDF800A0200080B207EB000A5A46DC
:108C34000099504601F0B8FCA41D3020210089B2EF
:108C44007854641C3120210089B27854641C614832
:108C54000079042805DA0020210089B27854641CC4
:108C640004E0FF20210089B27854641C434890F842
:108C74007D030B2805DA0020210089B27854641C96
:108C840004E0FF20210089B27854641C4D488168B7
:108C9400220092B2B954641C8168090A220092B27B
:108CA400B954641C8168090C220092B2B954641C42
:108CB4008068000E210089B27854641C3F48D0F8C3
:108CC4009410220092B2B954641CD0F8E800210038
:108CD40089B27854641C00203649CA78920701D5B9
:108CE400012210000022CB781B0701D501231A00B2
:108CF400002391F803C05FEACC7C02D55FF0010C3D
:108D0400634614F1010A097911F01F0151EA431174
:108D140051EA821151EAC011A4B239555046401E9D
:108D2400B870514689B2891EB81C01F0FBF951464E
:108D340089B278541AF1010A010089B2090A52462B
:108D440092B2B9541AF1010AA5F878A207B0BDE8A5
:108D5400F08F0000485E00200400FA050CED00E0EE
:108D6400FC5E0020B82D0020B8350020FC1401085A
:108D74004C5D00206C5D0020485D002038450020DB
:108D8400800F0108D00E0108141601080C16010802
:108D9400B80F0108D45E0020F4140108F00F010894
:108DA400480F010828100108805E0020B83D00200B
:108DB400E0140020A45E0020EC570020305900206D
:108DC400E85E0020B84B0020C4480020C05E0020AC
:108DD40000500008885B002080B55FF4E13001F0AA
:108DE400DFFF02F03FF80021012002F04CF801BD42
:108DF4002DE9F04705000E00170000244FF46378B6
:108E04005FF00009AA464A464146504601F0FAFA84
:108E14003000C0B2012840F09E81C8202100C9B2B0
:108E240005EB8101C1F8DC0002202100C9B229440C
:108E340081F86C0201202100C9B2294481F878002C
:108E4400641CC8202100C9B205EB8101C1F8DC0013
:108E540002202100C9B2294481F86C0202202100B9
:108E6400C9B2294481F87800641CC8202100C9B221
:108E740005EB8101C1F8DC0019202100C9B22944A5
:108E840081F86C020B202100C9B2294481F87800D2
:108E9400641CC8202100C9B205EB8101C1F8DC00C3
:108EA40002202100C9B2294481F86C020C2021005F
:108EB400C9B2294481F87800641CC8202100C9B2D1
:108EC40005EB8101C1F8DC000A202100C9B2294464
:108ED40081F86C020D202100C9B2294481F8780080
:108EE400641CC8202100C9B205EB8101C1F8DC0073
:108EF4000A202100C9B2294481F86C021B202100F8
:108F0400C9B2294481F87800641CC8202100C9B280
:108F140005EB8101C1F8DC0002202100C9B229441B
:108F240081F86C0212202100C9B2294481F878002A
:108F3400641CC8202100C9B205EB8101C1F8DC0022
:108F440028202100C9B2294481F86C0204202100A0
:108F5400C9B2294481F87800641CC8202100C9B230
:108F640005EB8101C1F8DC00B4202100C9B2294419
:108F740081F86C0205202100C9B2294481F87800E7
:108F8400641CC8202100C9B205EB8101C1F8DC00D2
:108F9400B4202100C9B2294481F86C0206202100C2
:108FA400C9B2294481F87800641C4FF44870210048
:108FB400C9B205EB8101C1F8DC0002212200D2B262
:108FC4002A4482F86C1208212200D2B22A4482F880
:108FD4007810641C40F6B8312200D2B205EB82024C
:108FE400C2F8DC1002212200D2B22A4482F86C12A8
:108FF40009212200D2B22A4482F87810641C21008C
:10900400C9B205EB8101C1F8DC0004212200D2B20F
:109014002A4482F86C1215212200D2B22A4482F822
:109024007810641C2100C9B205EB8101C1F8DC0091
:1090340004212200D2B22A4482F86C122021220098
:10904400D2B22A4482F87810641C2100C9B205EB1C
:109054008101C1F8DC0032212200D2B22A4482F814
:109064006C121F212200D2B22A4482F87810641CA8
:109074002100C9B205EB8101C1F8DC000221220004
:10908400D2B22A4482F86C1216212200D2B22A44A7
:1090940082F87810641C2100C9B205EB8101C1F883
:1090A400DC0005212200D2B22A4482F86C12182175
:1090B4002200D2B22A4482F87810641C2100C9B27A
:1090C40005EB8101C1F8DC0032212200D2B22A442E
:1090D40082F86C121C212200D2B22A4482F8781041
:1090E400641C2100C9B205EB8101C1F8DC00322106
:1090F4002200D2B22A4482F86C121D212200D2B27C
:109104002A4482F87810641C2100C9B205EB81015D
:10911400C1F8DC0032212200D2B22A4482F86C1257
:1091240022212200D2B22A4482F87810641C210041
:10913400C9B205EB8101C1F8DC0032202100C9B2BB
:10914400294481F86C0221202100C9B2294481F804
:109154007800641C51E04FF4FA602100C9B205EBB9
:109164008101C1F8DC0001202100C9B2294481F841
:109174006C0210202100C9B2294481F87800641CD3
:10918400B4202100C9B205EB8101C1F8DC00012043
:109194002100C9B2294481F86C0203202100C9B21C
:1091A400294481F87800641C4FF4C8702100C9B2C6
:1091B40005EB8101C1F8DC0001202100C9B229447A
:1091C40081F86C020F202100C9B2294481F878008B
:1091D400641C14202100C9B205EB8101C1F8DC0034
:1091E40001202100C9B2294481F86C020020210029
:1091F400C9B2294481F87800641C0220A5F87E03D2
:1092040085F87C6385F878435FF04808B946AA4638
:1092140042464946504601F0C7F9BDE8F087F0B52B
:10922400ADF5006D83B004000D0000274FF400611C
:10923400002203AE300001F0E5F894F879032044ED
:1092440090F878603000C0B2002853D001285CD078
:10925400022865D0032863D0042800F089800528FB
:1092640000F08B80062800F08D80072800F08F80A6
:10927400082800F09180092800F093800A2800F063
:10928400A2800B2852D00C2854D00D285CD00E2874
:1092940064D00F282DD0102800F08D80122862D0C1
:1092A400132800F08380152800F0AD80162800F004
:1092B400C580182800F0C7801A2800F015811B28E3
:1092C40047D01C2800F0CF801D2800F0D9801E282C
:1092D40000F0E3801F2800F0AC80202800F0A48078
:1092E400212800F0E780222800F0F180232826D0EE
:1092F40003E102E1DFF83809818800684161DFF8A1
:109304003409818800684161F7E0DFF82409818825
:1093140000684161DFF81C09818800684161ECE064
:10932400DFF81009818800680161E6E076A001F0A9
:10933400F7FDE2E0DFF8000901F0F2FDDDE0DFF81F
:10934400FC0801F0EDFDD8E0DFF8F40801F0E8FDD9
:10935400D3E0DFF8F00801F0E3FDCEE0DFF8E80841
:1093640001F0DEFDC9E0DFF8E40801F0D9FDC4E056
:10937400DFF8DC0801F0D4FDBFE0DFF8D80801F025
:10938400CFFDBAE0DFF8D00801F0CAFDB5E0DFF8A0
:10939400CC0801F0C5FDB0E0DFF8C40801F0C0FD61
:1093A400ABE0DFF8C00801F0BBFDA6E0DFF8B808C9
:1093B40001F0B6FDA1E00A2001F086FDDFF8AC085B
:1093C40001F0AEFD99E094F8470000280ED1A08882
:1093D4000290E0780190A078009063782278DFF81A
:1093E4009018DFF8900801F0A5FC07E0A388A21DFF
:1093F400DFF88418DFF87C0801F09CFCDFF87408BF
:1094040001F08EFD79E0DFF8740801F089FDDFF8E2
:10941400700801F085FDDFF86C0801F081FDDFF8CC
:10942400680801F07DFD68E0DFF8600801F078FD70
:1094340063E0DFF85C0801F073FD5EE0DFF85408D8
:1094440001F06EFD59E0DFF850080090DFF84C3869
:10945400DFF84C28DFF84C1803A801F06BFC03A8D4
:1094640001F05EFD49E0DFF83838DFF83028DFF836
:10947400381803A801F05EFC03A801F051FD3CE09C
:10948400DFF81C38DFF81428DFF8201803A801F0EF
:1094940051FC03A801F044FD2FE0DFF80438DFF8A5
:1094A400FC27DFF80C1803A801F044FC03A801F022
:1094B40037FD22E0DFF8E837DFF8E027DFF8F417BC
:1094C40003A801F037FC03A801F02AFD15E0DFF83A
:1094D400D037DFF8C827DFF8E01703A801F02AFC2B
:1094E40003A801F01DFD08E0DFF8D01703A801F080
:1094F40021FCDFF8CC0701F013FDC4F884530DF50B
:10950400006D03B0F0BD0000415400002DE9F84F98
:10951400ADF5006D82B004000D00002700264FF465
:10952400006100220DF10808404600F06BFF94F83A
:109534007903204490F878008DF800009DF800002D
:109544000028022833D9001F00F0D180401E00F00B
:10955400D880401E00F0E980401E022828D9C01E91
:1095640000F0F780401E012822D9801E57D0401EEB
:1095740000F0A280401E1AD0401E19D0801E17D0C1
:10958400401E00F08980801E012840F2E280C01E47
:10959400012840F2DE80801E00F0E480401E68D086
:1095A400401E062840F2D580C01F0AD0EFE0EEE04E
:1095B400AEA1280001F0DEFB002801D00120060046
:1095C400E5E0AAA1280001F0D5FB002826D001205F
:1095D4000600022715F1080814F55D793A004146A2
:1095E400484600F0E1FF5FF0020915F10B0A04F2AE
:1095F400763B4A465146584600F0D6FF0A220221DD
:1096040014F55D7000F014FE84F87A030A22022136
:1096140004F2763000F00CFE84F87B03B7E093A1EB
:10962400280001F0A7FB002822D01127A81C0190D4
:1096340014F148083A000199404600F0B5FF5FF084
:10964400110815F10209DFF858A6D34642464946E7
:10965400584600F0A9FF14F1590114F1480000F034
:1096640085FDDFF86016504600F080FD01200600FD
:109674008DE07EA1280001F07DFB00280BD011278E
:1096840015F1020814F161093A004146484600F018
:109694008BFF012006007AE074A1280001F06AFB28
:1096A400002808D0DFF82016280001F063FB00280A
:1096B40001D0012006006AE06CA1280001F05AFBE9
:1096C400002813D014F172021C21280000F0D4F8F1
:1096D400002809D106275FF0000814F172094246F8
:1096E4003900484600F08EFE012006004FE0DFF806
:1096F400DC15280001F03EFB002801D00120060003
:1097040045E0DFF8CC15280001F034FB00280BD02D
:1097140057A1280001F02EFB4178312902D041786D
:10972400352901D101210E0031E0DFF8A815280008
:1097340001F020FB00280BD04DA1280001F01AFBFA
:109744004178312902D04178352901D101210E0017
:109754001DE046A1280001F00DFB002801D00120E6
:10976400060014E043A1280001F004FB00280ED0F9
:10977400DFF8481502A801F0DDFA282102A801F05B
:10978400ACFB282102A801F0A8FB01200600002060
:10979400DFF8441581F87D033000C0B20DF5006D8B
:1097A40003B0BDE8F08F10B4002190F8792302448F
:1097B40092F878201300DBB2002B012B21D99B1ED9
:1097C400012B0FD99B1E0A2B2AD90B3B012B18D92D
:1097D400DB1E012B24D9DB1E012B21D9DB1E0B2B15
:1097E4001ED92CE0002190F87933034483F86C12DD
:1097F40090F87913491C80F87913002180F88813B4
:109804001DE0002190F87933034483F86C1290F83A
:109814007913491C80F87913002180F888130EE02D
:1098240090F8881300290AD1002190F87933034471
:1098340083F86C1290F87913491C80F8791310BCE2
:10984400704710B50400DFF89414200001F092FA78
:10985400002806D1DFF88814200001F08BFA0028D4
:1098640001D0012000E0002010BD00004F4B00009B
:109874002C0000003E0000002DE9F84F04000D000C
:1098840016005FF0000A5FF000095FF0010B00278B
:1098940022232A00D2B292B25046010089B220009B
:1098A40000F096FD80465846C0B200281DD0B8F19D
:1098B400000F1AD4002083460A22022104EB080078
:1098C400401C00F0B5FC070018F103083800C0B2D2
:1098D40015280ADB3800C0B2642806DA4846C0B24C
:1098E400375419F10109012083462F232A00D2B2EB
:1098F40092B24046010089B2200000F069FD824620
:109904005846C0B200281DD0BAF1000F1AD4002066
:1099140083460A22022104EB0A00401C00F088FC62
:1099240007001AF1030A3800C0B200280AD0380030
:10993400C0B20D2806DA4846C0B2375419F10109FD
:10994400012083462F232A00D2B292B2504601004E
:1099540089B2200000F03CFD80465846C0B2002881
:109964001DD0B8F1000F1AD4002083460A22022128
:1099740004EB0800401C00F05BFC070018F103082E
:109984003800C0B200280AD03800C0B2202806DA55
:109994004846C0B2375419F10109012083462C23EB
:1099A4002A00D2B292B24046010089B2200000F0EF
:1099B4000FFD82465846C0B2002819D0BAF1000FF4
:1099C40016D4002083460A22022104EB0A00401C1C
:1099D40000F02EFC07001AF1030A3800C0B2182860
:1099E40006DA4846C0B2375419F10109012083460A
:1099F4003A232A00D2B292B25046010089B2200022
:109A040000F0E6FC80465846C0B2002819D0B8F1F0
:109A1400000F16D4002083460A22022104EB08001A
:109A2400401C00F005FC070018F103083800C0B220
:109A34003C2806DA4846C0B2375419F1010901201E
:109A440083463A232A00D2B292B24046010089B238
:109A5400200000F0BDFC82465846C0B2002819D050
:109A6400BAF1000F16D4002083460A22022104EB27
:109A74000A00401C00F0DCFB07001AF1030A38005E
:109A8400C0B23C2806DA4846C0B2375419F101097D
:109A9400012083465846C0B2BDE8F28F2DE9F04F4D
:109AA40087B004000D000026E078012840F09A8079
:109AB400022100226F46380000F0A4FC4FF492709B
:109AC4000690002005902700059A0699380000F0BA
:109AD40099FC0827A81D049014F18E083A000499F3
:109AE400404600F061FD5FF0020815F12500039087
:109AF40014F1960942460399484600F055FD5FF07B
:109B0400020915F12700029014F1980A4A460299B5
:109B1400504600F049FD5FF0040A15F12900019058
:109B240014F19A0B52460199584600F03DFDDFF8B6
:109B3400B4B11BF10A0114F18E0000F017FB1BF104
:109B4400040114F1960000F011FB1BF1050114F15E
:109B5400980000F00BFB694614F19A0000F006FB34
:109B640069469DF80020487850EA022000282CD04D
:109B74009DF80000497851EA0021ABF80610BBF8C3
:109B84000600802814DA01200600BBF8060047000E
:109B940015F12D0814F19E093A004146484600F09B
:109BA40003FD1BF10E0114F19E0000F0DFFA39E011
:109BB4000120060080275FF000081BF10E094246D1
:109BC4003900484600F01EFC2CE0012006008027E6
:109BD4005FF000081BF10E0942463900484600F0C8
:109BE40011FC1FE0E07804281CD14FF492775FF059
:109BF4000008DFF8F090CA4642463900504600F0AB
:109C040001FC5FF0080AA81D019014F18E0B524666
:109C14000199584600F0C8FC19F10A0114F18E00AC
:109C240000F0A4FA3000C0B207B0BDE8F08F000025
:109C3400141601080C160108AC150108B415010826
:109C4400BC150108C41501086C140108CC150108E1
:109C54007814010884140108901401089012010872
:109C6400201401089C140108B012010830140108E2
:109C7400D0110108AC5D0020D01201084013010886
:109C84005C130108781301083C0E010894130108C1
:109C9400F8130108FC110108D80D0108D4150108B6
:109CA400D45E00204C1201087011010860100108F4
:109CB400981001080C0F0108A0110108D010010828
:109CC4008C0E0108C05E0020DC150108E4150108B3
:109CD400EC150108F415010838450020A814010802
:109CE400B4140108645A002038B504002100C9B234
:109CF4004FF4165001F026F9012001F093F9544D68
:109D0400E96915F1240001F0A4F9D5F82C1115F531
:109D1400987001F0E6F95FF400104E4908604FF4C2
:109D240090704D4908604D48016851F0010101608F
:109D34000020287031BD2DE9F84304000D00160001
:109D44001F005FF000095FF0000801204946C9B216
:109D5400785419F101094846C0B23C5419F101097B
:109D6400280080B2000A4946C9B2785419F10109A1
:109D74004846C0B23D5419F10109300080B2000ACE
:109D84004946C9B2785419F101094846C0B23E5453
:109D940019F101094946C9B2380000F012F801006E
:109DA4004846C0B2395419F10109080080B2000ACA
:109DB4004A46D2B2B85419F101094846C0B2BDE8C6
:109DC400F28370B403000022002600244FF6FF70D3
:109DD40000252A000E00F6B292B2B6B2B24218D2F0
:109DE4002A0092B29A5C5040002214002200D2B29F
:109DF400082A0CDAC20706D580B202004AF2010032
:109E040090EA520001E080B24008641CEEE76D1C49
:109E1400DFE780B270BC704738B504000C4D0020F9
:109E24002870032028764FF4804028840220688418
:109E340014F10C03628921892078FFF77CFFE86123
:109E4400E96989B215F1240001F0CDF931BD0000B2
:109E5400B84B002004000240700002406C00024035
:109E6400F8B5040000256068092818D300260027E7
:109E74006068811EC9B214F10800FFF7A2FF61688F
:109E84002144CA7912026168214489790A43010094
:109E9400130089B29BB2994201D101210D0028001F
:109EA400C0B2F2BDF0B401000C00E40F0A00D20D00
:109EB4004B025B0A2000C0B2002802D05FF0FF30E2
:109EC40013E07F3A4FF47A75012612F10A008640B6
:109ED4006E434FF4806096FBF0F0D2F10D061F0044
:109EE400F74005FB07F510EB9520F0BC70472DE912
:109EF400F04104000D0016005FF00108002728005F
:109F040080B2002860D001F0C7F9002801D10020F8
:109F140080464046C0B2002808D0A02001F051FA83
:109F240001F02EFA002801D1002080464046C0B23C
:109F3400002808D0200080B2000AC0B201F041FA23
:109F440001F01EFA80464046C0B2002806D0200028
:109F5400C0B201F036FA01F013FA80464046C0B2AE
:109F6400002805D001F098F9002801D1002080468E
:109F74004046C0B2002808D0A12001F022FA01F026
:109F8400FFF9002801D1002080466D1E4046C0B272
:109F9400002817D0002007003800290080B289B2B9
:109FA400884208D201F032FA390089B2705401F0C3
:109FB400B7F97F1CF0E701F029FA390089B270542F
:109FC40001F0C6F901F094F94046C0B2BDE8F08151
:109FD4002DE9F04104000D00160000275FF0010890
:109FE400280080B2002842D001F056F9002801D19F
:109FF400002080464046C0B2002808D0A02001F0CE
:10A00400E0F901F0BDF9002801D100208046404666
:10A01400C0B2002808D0200080B2000AC0B201F00B
:10A02400D0F901F0ADF980464046C0B2002806D010
:10A034002000C0B201F0C5F901F0A2F98046002069
:10A0440007003800290080B289B288420DD2404608
:10A05400C0B2002807D0380080B2305C01F0B1F9FA
:10A0640001F08EF980467F1CEBE701F041F90520F1
:10A0740001F009F94046C0B2BDE8F0812DE9F0478E
:10A0840004000D00160000275FF000085FF0000ACE
:10A09400200010F01F0F1BD014F01F00D0F120007F
:10A0A40007002800390080B289B2884200D22F000C
:10A0B400404680B206EB0002390089B218EB040076
:10A0C40080B2FFF785FF8146ED1B17EB080801E01E
:10A0D4005FF001094846C0B200281FD0280080B2B2
:10A0E40000281BD0202007002800390080B289B244
:10A0F400884200D22F00404680B206EB00023900AD
:10A1040089B218EB040080B2FFF762FF8146ED1BB1
:10A1140017EB08084846C0B20028DFD14846C0B251
:10A12400BDE8F08770B403000022002400264FF637
:10A13400FF7000258D4214D25A5D50400022160053
:10A14400082E0CD2C20706D580B2020048F208409D
:10A1540090EA520001E080B24008761CF0E76D1CE2
:10A16400E8E780B2C04380B270BC70472DE9F0418B
:10A1740004000D005FF0000800260027002C24D006
:10A18400200000F0BBFD01004FF6FE7001400020EE
:10A19400060030000A0080B292B2904210D22248E7
:10A1A400320092B2A25C825C120133009BB223445F
:10A1B4005B78C05C024317002F706D1CB61CE8E787
:10A1C40088461FFA88F85FEA5808404680B2BDE81E
:10A1D400F081F0B400250023002425001600ADB260
:10A1E400B6B2B5421DD22500ADB24D5DEDB22D091A
:10A1F4000E4E2F00FFB2F75DA4461FFA8CFC00F848
:10A204001C702700BFB2CF5D17F00F073B001F0083
:10A21400FFB2F65D2700BFB200EB47077E70641CF7
:10A22400DBE7F0BC70470000200B01084014010874
:10A23400F0B403000020002500260027002B00F0C6
:10A24400C5801400E4B2022C09D0082C24D00A2CB6
:10A254003FD0102C00F07F80112C58D0B6E01D00A8
:10A26400002427003C008C46E4B25FFA8CFC644571
:10A2740011D22C7826003400E4B2302C03D0340000
:10A28400E4B2312C07D140003400E4B2303C201851
:10A294007F1C6D1CE6E799E01D00002427003C00AC
:10A2A4008C46E4B25FFA8CFC644511D22C7826000B
:10A2B4003400E4B2302C0BDB3400E4B2382C07DA7F
:10A2C400C0003400E4B2303C20187F1C6D1CE6E76B
:10A2D4007CE01D00002427003C008C46E4B25FFAB9
:10A2E4008CFC644512D22C7826003400E4B2302C65
:10A2F4000CDB3400E4B23A2C08DA0A24604334005C
:10A30400E4B2303C20187F1C6D1CE5E75EE01D00C4
:10A31400002427003C008C46E4B25FFA8CFC6445C0
:10A3240018D22C7826003400E4B2302C0ADB340036
:10A33400E4B23A2C06DA0A2460433400E4B2303C36
:10A34400201804E03400E4B22E2C00D002E07F1C7C
:10A354006D1CDFE73AE01D00002427003C008C461A
:10A36400E4B25FFA8CFC64452FD22C7826003400CA
:10A37400E4B2302C09DB3400E4B23A2C05DA0001F3
:10A384003400E4B2303C20181CE03400E4B2612C08
:10A3940009DB3400E4B2672C05DA00013400E4B2CE
:10A3A400573C20180EE03400E4B2412C09DB3400A1
:10A3B400E4B2472C05DA00013400E4B2373C20183B
:10A3C40000E002E07F1C6D1CC8E7FFE7F0BC7047AB
:10A3D40070B404005FF0FF300D001600ADB2B6B2E9
:10A3E400B5420CD20D00ADB2655D1E00F6B2B542A9
:10A3F40003D10D00ADB2280001E0491CECE770BCAC
:10A404007047000062F30F2262F31F42401810F0FD
:10A41400030308D0C91A1FD3DB0748BF00F8012D76
:10A4240028BF20F8022D130030B414461546103905
:10A4340028BF20E93C00FAD8490728BF20E90C00CE
:10A4440048BF40F8042D890028BF20F8022D48BFDA
:10A4540000F8012D30BC7047C91818BF00F8012D51
:10A46400CB0728BF00F8012D704700002DE9F84301
:10A474005FF00008002441F6CA75DFF82861320055
:10A4840036212800FFF733FD07003800C0B200284A
:10A4940010D05FF000085FF0000934213000FFF7AE
:10A4A40041FEB18E02000B0092B29BB29A4201D0DF
:10A4B40000221700320036214FF4F050FFF717FD49
:10A4C40080464046C0B200280FD000245FF0000947
:10A4D40034213000FFF726FEB18E02000B0092B249
:10A4E4009BB29A4201D00022904658EA0700C0B2BB
:10A4F40000280FD136240025B1462A002100484601
:10A50400FFF780FF0120F0804AF6AA20B08000F017
:10A514002AF826E03800C0B201280FD14046C0B264
:10A5240000280BD1320036212800FFF7E0FC32006E
:10A5340036214FF4F050FFF7A1FD12E03800C0B20D
:10A5440000280ED14046C0B201280AD1320036217B
:10A554004FF4F050FFF7CBFC320036212800FFF710
:10A564008DFDBDE8F18338B500240E4D0020A8868A
:10A5740034212800FFF7D6FDA8862A00362141F6AB
:10A58400CA70FFF77BFD012809D12A0036214FF458
:10A59400F050FFF773FD012801D1012004002000D1
:10A5A400C0B232BD485E002062B38B0708D0521E91
:10A5B40011F8013B00F8013B00F024808B07F6D131
:10A5C400830740F0208000BF103A07D330B4B1E8CD
:10A5D4003810103AA0E83810F9D230BC530724BF21
:10A5E400B1E80810A0E8081044BF51F8043B40F853
:10A5F400043BD20724BF31F8022B20F8022B44BFBE
:10A604000B7803707047121F17D35B0009D151F800
:10A61400043B20F8023B1B0C121F20F8023BF6D22D
:10A624000BE051F8043B00F8013B1B0A20F8023B05
:10A634001B0C121F00F8013BF3D238BF121D521E2F
:10A6440024BF11F8013B00F8013BF8D87047000023
:10A654000300002013F0030F09D0521E22BF13F889
:10A66400010B11F801CBB0EB0C00F3D0704711F0E3
:10A67400030F14D1121F22BF53F8040B51F804CB5B
:10A684006045F7D0121D0AD200BA9CFA8CFCB0EBDC
:10A694000C0038BF6FF0000088BF01207047521EC5
:10A6A40022BF13F8010B11F801CBB0EB0C00F6D06C
:10A6B400521C08BF104670472DE9F84F04000D00E6
:10A6C40000208DF800005FF4E13000F0CBFE0120A3
:10A6D40000F02FFFDFF8006616F50E7B4021584688
:10A6E40000F03EFF16F114094FF40871484600F0DB
:10A6F40089FF002030700020B070002030710020ED
:10A70400B0604FF409775FF00008424639004846CC
:10A71400FFF778FE5FF042095FF0000A52464946AF
:10A724005846FFF76FFE002086F89402002086F852
:10A734009502002030700020B070B560C6F89C42CD
:10A7440000263000C0B20C281BDAA0275FF00008F6
:10A754005FF0A009DFF884A53000C0B209FB00F067
:10A764000AEB000B424639005846FFF74BFE300017
:10A77400C0B209FB00F90AEB0900FF210172761C43
:10A78400DFE7BDE8F18F10B50024DFF85405016858
:10A79400490849000160DFF84C050168490849008F
:10A7A4000160002000F0C5FE002240F22441200098
:10A7B40001F065F800228021200001F098F80022C1
:10A7C4004021200001F093F80021200001F048F816
:10A7D400200000F087FF10BD2DE9F84F04000D00A4
:10A7E4002078002831D1DFF8F06400203070002098
:10A7F400B070002030710020B0604FF409775FF032
:10A80400000816F11409424639004846FFF7FAFDDC
:10A814005FF042095FF0000A16F50E7B5246494686
:10A824005846FFF7EFFD002086F89402002086F8D2
:10A834009502002084F89502012020700220A07067
:10A844003C2084F89402A560D5E02078012802D049
:10A85400207802286CD194F8A10200282FD0DFF8C8
:10A864007864002030700020B07000203071002027
:10A87400B0604FF409775FF0000816F114094246FE
:10A8840039004846FFF7BEFD5FF042095FF0000A59
:10A8940016F50E7B524649465846FFF7B3FD002095
:10A8A40086F89402002086F8950203202070022086
:10A8B400A07094F8A10284F89402A5609BE020792A
:10A8C400401C2071002084F8950220790628C0F2EB
:10A8D4009280DFF80464002030700020B070002003
:10A8E40030710020B0604FF409775FF0000816F172
